{
  "contractName": "UsersContract",
  "abi": [
    {
      "anonymous": false,
      "inputs": [
        {
          "indexed": false,
          "name": "",
          "type": "address"
        },
        {
          "indexed": false,
          "name": "",
          "type": "string"
        }
      ],
      "name": "onUserJoined",
      "type": "event"
    },
    {
      "constant": false,
      "inputs": [
        {
          "name": "name",
          "type": "string"
        },
        {
          "name": "surname",
          "type": "string"
        }
      ],
      "name": "join",
      "outputs": [],
      "payable": false,
      "stateMutability": "nonpayable",
      "type": "function"
    },
    {
      "constant": true,
      "inputs": [
        {
          "name": "addr",
          "type": "address"
        }
      ],
      "name": "getUser",
      "outputs": [
        {
          "name": "",
          "type": "string"
        },
        {
          "name": "",
          "type": "string"
        }
      ],
      "payable": false,
      "stateMutability": "view",
      "type": "function"
    },
    {
      "constant": true,
      "inputs": [],
      "name": "totalUsers",
      "outputs": [
        {
          "name": "",
          "type": "uint256"
        }
      ],
      "payable": false,
      "stateMutability": "view",
      "type": "function"
    }
  ],
  "bytecode": "0x608060405234801561001057600080fd5b50610878806100206000396000f300608060405260043610610057576000357c0100000000000000000000000000000000000000000000000000000000900463ffffffff16806329803b211461005c5780636f77926b1461010b578063bff1f9e114610233575b600080fd5b34801561006857600080fd5b50610109600480360381019080803590602001908201803590602001908080601f0160208091040260200160405190810160405280939291908181526020018383808284378201915050505050509192919290803590602001908201803590602001908080601f016020809104026020016040519081016040528093929190818152602001838380828437820191505050505050919291929050505061025e565b005b34801561011757600080fd5b5061014c600480360381019080803573ffffffffffffffffffffffffffffffffffffffff169060200190929190505050610562565b604051808060200180602001838103835285818151815260200191508051906020019080838360005b83811015610190578082015181840152602081019050610175565b50505050905090810190601f1680156101bd5780820380516001836020036101000a031916815260200191505b50838103825284818151815260200191508051906020019080838360005b838110156101f65780820151818401526020810190506101db565b50505050905090810190601f1680156102235780820380516001836020036101000a031916815260200191505b5094505050505060405180910390f35b34801561023f57600080fd5b5061024861072a565b6040518082815260200191505060405180910390f35b600061026933610737565b15151561027557600080fd5b6000803373ffffffffffffffffffffffffffffffffffffffff1673ffffffffffffffffffffffffffffffffffffffff1681526020019081526020016000209050828160000190805190602001906102cd92919061078d565b50818160010190805190602001906102e692919061078d565b5060018060003373ffffffffffffffffffffffffffffffffffffffff1673ffffffffffffffffffffffffffffffffffffffff16815260200190815260200160002060006101000a81548160ff02191690831515021790555060023390806001815401808255809150509060018203906000526020600020016000909192909190916101000a81548173ffffffffffffffffffffffffffffffffffffffff021916908373ffffffffffffffffffffffffffffffffffffffff160217905550507fcb377c658a30311994ed849c5202a7876366b3353f8a9e009226ccd6411935b33384846040516020018083805190602001908083835b60208310151561040057805182526020820191506020810190506020830392506103db565b6001836020036101000a038019825116818451168082178552505050505050905001807f200000000000000000000000000000000000000000000000000000000000000081525060010182805190602001908083835b60208310151561047b5780518252602082019150602081019050602083039250610456565b6001836020036101000a03801982511681845116808217855250505050505090500192505050604051602081830303815290604052604051808373ffffffffffffffffffffffffffffffffffffffff1673ffffffffffffffffffffffffffffffffffffffff16815260200180602001828103825283818151815260200191508051906020019080838360005b83811015610522578082015181840152602081019050610507565b50505050905090810190601f16801561054f5780820380516001836020036101000a031916815260200191505b50935050505060405180910390a1505050565b60608061056d61080d565b61057684610737565b151561058157600080fd5b6000808573ffffffffffffffffffffffffffffffffffffffff1673ffffffffffffffffffffffffffffffffffffffff168152602001908152602001600020604080519081016040529081600082018054600181600116156101000203166002900480601f0160208091040260200160405190810160405280929190818152602001828054600181600116156101000203166002900480156106635780601f1061063857610100808354040283529160200191610663565b820191906000526020600020905b81548152906001019060200180831161064657829003601f168201915b50505050508152602001600182018054600181600116156101000203166002900480601f0160208091040260200160405190810160405280929190818152602001828054600181600116156101000203166002900480156107055780601f106106da57610100808354040283529160200191610705565b820191906000526020600020905b8154815290600101906020018083116106e857829003601f168201915b5050505050815250509050806000015181602001518191508090509250925050915091565b6000600280549050905090565b6000600160008373ffffffffffffffffffffffffffffffffffffffff1673ffffffffffffffffffffffffffffffffffffffff16815260200190815260200160002060009054906101000a900460ff169050919050565b828054600181600116156101000203166002900490600052602060002090601f016020900481019282601f106107ce57805160ff19168380011785556107fc565b828001600101855582156107fc579182015b828111156107fb5782518255916020019190600101906107e0565b5b5090506108099190610827565b5090565b604080519081016040528060608152602001606081525090565b61084991905b8082111561084557600081600090555060010161082d565b5090565b905600a165627a7a7230582034cb172a3050816c95d745595605ee0b39b5bddb97298f454a0997f5d999ed4f0029",
  "source": "pragma solidity ^0.4.24;\n\ncontract UsersContract{\n    struct User {\n        string name;\n        string surname;\n    }\n\n    mapping(address=> User) private users;\n    mapping(address=>bool) private joinedUsers;\n    address[] total;\n\n    event onUserJoined(address,string);\n\n    function join(string name,string surname) public {\n        require(!usersJoined(msg.sender));\n        User storage user=users[msg.sender];\n        user.name=name;\n        user.surname=surname;\n        joinedUsers[msg.sender]=true;\n        total.push(msg.sender);\n        onUserJoined(msg.sender,string(abi.encodePacked(name,\" \",surname)));\n    }\n    function getUser(address addr) public view returns(string,string){\n        require(usersJoined(addr));\n        User memory user= users[addr];\n        return (user.name,user.surname);\n    }\n    function usersJoined(address addr) private view returns (bool){\n        return joinedUsers[addr];\n    }\n\n    function totalUsers() public view returns(uint){\n        return total.length;\n    }\n}",
  "sourcePath": "/Users/carlosguevara/projects/carlos/etherium-training/ethereum-truffle/contracts/UsersContract.sol",
  "compiler": {
    "name": "solc",
    "version": "0.4.25+commit.59dbf8f1.Emscripten.clang"
  },
  "schemaVersion": "2.0.2",
  "updatedAt": "2019-01-09T21:59:52.045Z"
}